{
  "_format": "hh-sol-artifact-1",
  "contractName": "TimelockWallet",
  "sourceName": "contracts/TimelockWallet.sol",
  "abi": [
    {
      "inputs": [
        {
          "internalType": "uint256",
          "name": "lockingPeriod",
          "type": "uint256"
        }
      ],
      "stateMutability": "nonpayable",
      "type": "constructor"
    },
    {
      "anonymous": false,
      "inputs": [
        {
          "indexed": true,
          "internalType": "address",
          "name": "previousOwner",
          "type": "address"
        },
        {
          "indexed": true,
          "internalType": "address",
          "name": "newOwner",
          "type": "address"
        }
      ],
      "name": "OwnershipTransferred",
      "type": "event"
    },
    {
      "anonymous": false,
      "inputs": [
        {
          "indexed": false,
          "internalType": "address",
          "name": "tokenAddress",
          "type": "address"
        },
        {
          "indexed": false,
          "internalType": "uint256",
          "name": "time",
          "type": "uint256"
        }
      ],
      "name": "TokenLocked",
      "type": "event"
    },
    {
      "anonymous": false,
      "inputs": [
        {
          "indexed": false,
          "internalType": "address",
          "name": "tokenAddress",
          "type": "address"
        },
        {
          "indexed": false,
          "internalType": "uint256",
          "name": "time",
          "type": "uint256"
        }
      ],
      "name": "Withdraw",
      "type": "event"
    },
    {
      "inputs": [],
      "name": "_admin",
      "outputs": [
        {
          "internalType": "address",
          "name": "",
          "type": "address"
        }
      ],
      "stateMutability": "view",
      "type": "function"
    },
    {
      "inputs": [
        {
          "internalType": "bytes32",
          "name": "c__0x36431053",
          "type": "bytes32"
        }
      ],
      "name": "c_0x36431053",
      "outputs": [],
      "stateMutability": "pure",
      "type": "function"
    },
    {
      "inputs": [
        {
          "internalType": "bytes32",
          "name": "c__0xceb89ec7",
          "type": "bytes32"
        }
      ],
      "name": "c_0xceb89ec7",
      "outputs": [],
      "stateMutability": "pure",
      "type": "function"
    },
    {
      "inputs": [
        {
          "internalType": "bytes32",
          "name": "c__0xfb7e8c4a",
          "type": "bytes32"
        }
      ],
      "name": "c_0xfb7e8c4a",
      "outputs": [],
      "stateMutability": "pure",
      "type": "function"
    },
    {
      "inputs": [
        {
          "internalType": "contract IERC20",
          "name": "token",
          "type": "address"
        },
        {
          "internalType": "uint256",
          "name": "noOfTokens",
          "type": "uint256"
        }
      ],
      "name": "lockToken",
      "outputs": [],
      "stateMutability": "nonpayable",
      "type": "function"
    },
    {
      "inputs": [],
      "name": "owner",
      "outputs": [
        {
          "internalType": "address",
          "name": "",
          "type": "address"
        }
      ],
      "stateMutability": "view",
      "type": "function"
    },
    {
      "inputs": [],
      "name": "renounceOwnership",
      "outputs": [],
      "stateMutability": "nonpayable",
      "type": "function"
    },
    {
      "inputs": [
        {
          "internalType": "contract IERC20",
          "name": "token",
          "type": "address"
        }
      ],
      "name": "safeWithdraw",
      "outputs": [],
      "stateMutability": "nonpayable",
      "type": "function"
    },
    {
      "inputs": [],
      "name": "startTime",
      "outputs": [
        {
          "internalType": "uint256",
          "name": "",
          "type": "uint256"
        }
      ],
      "stateMutability": "view",
      "type": "function"
    },
    {
      "inputs": [
        {
          "internalType": "address",
          "name": "",
          "type": "address"
        }
      ],
      "name": "tokens",
      "outputs": [
        {
          "internalType": "uint256",
          "name": "",
          "type": "uint256"
        }
      ],
      "stateMutability": "view",
      "type": "function"
    },
    {
      "inputs": [
        {
          "internalType": "address",
          "name": "newOwner",
          "type": "address"
        }
      ],
      "name": "transferOwnership",
      "outputs": [],
      "stateMutability": "nonpayable",
      "type": "function"
    },
    {
      "inputs": [],
      "name": "unlockTime",
      "outputs": [
        {
          "internalType": "uint256",
          "name": "",
          "type": "uint256"
        }
      ],
      "stateMutability": "view",
      "type": "function"
    },
    {
      "inputs": [
        {
          "internalType": "uint256",
          "name": "lockingPeriod",
          "type": "uint256"
        }
      ],
      "name": "updateUnlockTime",
      "outputs": [
        {
          "internalType": "bool",
          "name": "",
          "type": "bool"
        }
      ],
      "stateMutability": "nonpayable",
      "type": "function"
    }
  ],
  "bytecode": "0x60806040523480156200001157600080fd5b5060405162004022380380620040228339818101604052810190620000379190620008b9565b6200006b7f8c20473483bd847721a1e94692fab62329bcc0e89054bd2fcd92785a3b902c8660001b6200051660201b60201c565b6200009f7f6f33fd284f5f9e576e5a7fa86adb7dc9b087abc705477ad71bb0d211e7f6530860001b6200051660201b60201c565b620000d37f6bf8cd8421123cfb512562e1227a2219be08d797af5037cea107b5e7e290288160001b6200051660201b60201c565b620000e36200051960201b60201c565b6000806101000a81548173ffffffffffffffffffffffffffffffffffffffff021916908373ffffffffffffffffffffffffffffffffffffffff160217905550620001567f9cec0b8ecef0cc608b476297120da36c363d7e3415116f0d0ac9010654fdc1de60001b6200051660201b60201c565b6200018a7fb9cf42d415f81286236a4feb34b853fa6aa7a04f9e585e043b1771305178ed3d60001b6200051660201b60201c565b6200019a6200051960201b60201c565b600160006101000a81548173ffffffffffffffffffffffffffffffffffffffff021916908373ffffffffffffffffffffffffffffffffffffffff1602179055506200020e7fecc68ea860baa1c43653aaa7689f26c2ee14f97758a591d5d316bf3dbcc993f460001b6200051660201b60201c565b620002427f356e47e674435f0b0669ea835163bb4d94e7bcdba216b269a88ea56989e0e8d760001b6200051660201b60201c565b60008054906101000a900473ffffffffffffffffffffffffffffffffffffffff1673ffffffffffffffffffffffffffffffffffffffff16600073ffffffffffffffffffffffffffffffffffffffff167f8be0079c531659141344cd1fd0a4f28419497f9722a3daafe3b4186f6b6457e060405160405180910390a3620002f17ff3be033463831703663d7a04b5ffd846ca29e33f46daa88a61270f8d3a09e01f60001b620005bd60201b60201c565b620003257f7b85d735a6eb574a366eb2dbf2233eb5f17bf41d3d66075667e604637307359660001b620005bd60201b60201c565b620003597f1aa7aacff406f8a627dff0b0a1d8d4c847f9bf4ae6044b0ddfd973c6afcca24960001b620005bd60201b60201c565b6200038d7fd9f661453163c66acb46c1d7b34b00968ebe39eb858d0c29f23d34d119dcec4760001b620005bd60201b60201c565b60008111620003d3576040517f08c379a0000000000000000000000000000000000000000000000000000000008152600401620003ca90620009b1565b60405180910390fd5b620004077f48dfb41c0171ca2d6b76283a5bc2435a99c310d87d8554f07bcc0675507ac33060001b620005bd60201b60201c565b6200043b7ff4a6996e675e84482e210af7b34e85097b551ad106d3229d3b7028376a8a461260001b620005bd60201b60201c565b6200046f7f5955c5d879f072a6a6cceca39eb95af66d871621c1db387c995e3b6dca1bdca060001b620005bd60201b60201c565b6200047f620005c060201b60201c565b600281905550620004b97f3eda769f176a5c3179024790a34984501275386264ffa58594d0b4432b272bf060001b620005bd60201b60201c565b620004ed7f5276d2839999c259ca3540d1f488142f4edc150edd920f46601c515a99bbbf4860001b620005bd60201b60201c565b62000509816002546200066460201b62001b9c1790919060201c565b6003819055505062000a94565b50565b60006200054f7fefe8af90f2925d762dc37aa8dce6c9338523bde69737db1387f2a2b8775ac70160001b6200089c60201b60201c565b620005837f367dae95a5e6bb8212a60f815c938054ac7c5eaffa5f0e344fc9dde9eb154ded60001b6200089c60201b60201c565b620005b77f0a90da0cd4adc3967b626b3a5b33a17130f26ef286a00f2df4b7c9c69badf33860001b6200089c60201b60201c565b33905090565b50565b6000620005f67fdb0bf39366d756aa236d41bbfcec4365a049e1bc6da397cf6c504e8f24fd513e60001b620005bd60201b60201c565b6200062a7f792bbe93256c50f72a893fd536c11b55404b887889785b71b3b42cee526661c860001b620005bd60201b60201c565b6200065e7f48ee3a88d31b36dec3f85283add664e2ca93cba3ed5c03456e000b5c8876819e60001b620005bd60201b60201c565b42905090565b60006200069a7f363a5d5dbb02f8d9c56b2e699c893b3283dc2c059749b4352b7520e5b636b17460001b6200089f60201b60201c565b620006ce7f02160ecf417afc0bffef7c4a16ab19bb7441fccb7017c45273c8206e786c09d260001b6200089f60201b60201c565b620007027f3a72c1e0374f06721aefffadf1a36b60a05449aa23db18931faca82fd5b6377660001b6200089f60201b60201c565b60008284620007129190620009e4565b9050620007487f5c36927f89ec323194a2ad7d874bd5f44a445c638d7767806cfe31addd219cd560001b6200089f60201b60201c565b6200077c7f88c33a10f32a2551f70feca399815fc012c4f75d68de0398361e4fce2b1935ab60001b6200089f60201b60201c565b620007b07f35a4261621e1e486c653c7cd6f9913629c957dcb5fe4b64755f45db4c98cd30c60001b6200089f60201b60201c565b83811015620007f6576040517f08c379a0000000000000000000000000000000000000000000000000000000008152600401620007ed906200098f565b60405180910390fd5b6200082a7f9a9d8b2275418e16945094fe415f631f59daefd8548528e555b5b1fdb3c623e260001b6200089f60201b60201c565b6200085e7f304bd77b422983269b8432b4a4fb8b2f6a4196225679282a43446499cd04e2bf60001b6200089f60201b60201c565b620008927f647bae1197a5fdbce2a199ae91c501326c71c632848829b5b296f8354f3fa11060001b6200089f60201b60201c565b8091505092915050565b50565b50565b600081519050620008b38162000a7a565b92915050565b600060208284031215620008cc57600080fd5b6000620008dc84828501620008a2565b91505092915050565b6000620008f4601b83620009d3565b91507f536166654d6174683a206164646974696f6e206f766572666c6f7700000000006000830152602082019050919050565b600062000936603083620009d3565b91507f54696d656c6f636b57616c6c65743a20647572616e74696f6e2073686f756c6460008301527f206265206774207468616e207a65726f000000000000000000000000000000006020830152604082019050919050565b60006020820190508181036000830152620009aa81620008e5565b9050919050565b60006020820190508181036000830152620009cc8162000927565b9050919050565b600082825260208201905092915050565b6000620009f18262000a41565b9150620009fe8362000a41565b9250827fffffffffffffffffffffffffffffffffffffffffffffffffffffffffffffffff0382111562000a365762000a3562000a4b565b5b828201905092915050565b6000819050919050565b7f4e487b7100000000000000000000000000000000000000000000000000000000600052601160045260246000fd5b62000a858162000a41565b811462000a9157600080fd5b50565b61357e8062000aa46000396000f3fe608060405234801561001057600080fd5b50600436106100cf5760003560e01c806381925ee21161008c5780638f5dd49b116100665780638f5dd49b146101c65780639038d8b5146101f6578063e486033914610212578063f2fde38b14610242576100cf565b806381925ee214610170578063838a41071461018c5780638da5cb5b146101a8576100cf565b806301bc45c9146100d457806317be3fa5146100f2578063251c1aa31461010e5780636ef09ac21461012c578063715018a61461014857806378e9792514610152575b600080fd5b6100dc61025e565b6040516100e99190613123565b60405180910390f35b61010c60048036038101906101079190612c52565b610284565b005b610116610873565b604051610123919061335b565b60405180910390f35b61014660048036038101906101419190612c00565b610879565b005b61015061087c565b005b61015a610bf7565b604051610167919061335b565b60405180910390f35b61018a60048036038101906101859190612c00565b610bfd565b005b6101a660048036038101906101a19190612c29565b610c00565b005b6101b0611375565b6040516101bd9190613123565b60405180910390f35b6101e060048036038101906101db9190612c8e565b611399565b6040516101ed919061319e565b60405180910390f35b610210600480360381019061020b9190612c00565b61172b565b005b61022c60048036038101906102279190612bae565b61172e565b604051610239919061335b565b60405180910390f35b61025c60048036038101906102579190612bae565b611746565b005b600160009054906101000a900473ffffffffffffffffffffffffffffffffffffffff1681565b6102b07fcfc81cea229ba935df36a2e4f8affede0368fe56d41ecffb4be8f99c4662656960001b61172b565b6102dc7f89847358fe2e54d9d9ace109fb91c9c04d2b4fb257a44a7175d2582df1fecc5260001b61172b565b6103087f4aa53da0ca2b5286ae484a46dc3ae29fbba54fd0bdb262c4c3140465a15f830c60001b61172b565b6103347f7fa50dfecb6fb4ea420396471f3e51110f27e4ee9711dc3690c9f5b74f0a76f960001b61172b565b61033c611d87565b73ffffffffffffffffffffffffffffffffffffffff1660008054906101000a900473ffffffffffffffffffffffffffffffffffffffff1673ffffffffffffffffffffffffffffffffffffffff16146103c9576040517f08c379a00000000000000000000000000000000000000000000000000000000081526004016103c09061327b565b60405180910390fd5b6103f57f4f515787e2fb4c18f582974db9360d383fc85930365b36f087916eed82a3355a60001b61172b565b6104217fef39037d6104460e554116e0c20d5c0f8a26bc3607b17de6fdc43c3c86fb8b0e60001b61172b565b61044d7fea16c49c02c58a5c1c4ae80c49b5caee1a566e6cc4fee5a7b5aff5652e3fbaad60001b610879565b6104787ea9b42ef32b6b0ed5674ce02fe480833f3225d6500c30d07b05c4770f22786760001b610879565b6104a47f488b11b96ba3752eb265863600cbabfb7aeb55ae5c6561f4caa126f4bc754ae260001b610879565b6104d07f4dc15776bc8d2f175bf2dc509e012a67548c18a281a17d85bfd586aa7085fcf260001b610879565b600073ffffffffffffffffffffffffffffffffffffffff168273ffffffffffffffffffffffffffffffffffffffff161415610540576040517f08c379a00000000000000000000000000000000000000000000000000000000081526004016105379061333b565b60405180910390fd5b61056c7f3340d9c706d0696b86ef2449a194d0e053e9c7069cda01358cd670a61473270660001b610879565b6105987ff1c65c56a5487db8f8a10f02f42a1bc91594daaa9cb44c7b9a2e9bd6751e717860001b610879565b6105c47fa6870c9808dc69f6bb968315c6cb10d7c71488d6c2f3fed200e7442ba9d172e060001b610879565b6105ef7e3bb82f83211e6249dbf457ad72edafa70eda76f267c6325767217f05ab393f60001b610879565b60008111610632576040517f08c379a00000000000000000000000000000000000000000000000000000000081526004016106299061321b565b60405180910390fd5b61065e7f217c9fe904a70bb1b41bb23b5b224e3e42f4e0d979707db426181b7c3f6fe9fd60001b610879565b61068a7f078f47d4d1044669669900f144c2ba4188bd41ac5e346fe846bf62446d81025f60001b610879565b6106b67f5f8d1ea941d9e77f6c6648774603e0b71e804375e9955cd8bd2dfa1a012f52ac60001b610879565b61070881600460008573ffffffffffffffffffffffffffffffffffffffff1673ffffffffffffffffffffffffffffffffffffffff16815260200190815260200160002054611b9c90919063ffffffff16565b600460008473ffffffffffffffffffffffffffffffffffffffff1673ffffffffffffffffffffffffffffffffffffffff168152602001908152602001600020819055506107777f33304163cb044b69891aba0165d0f3ba824ba047864abd807b9c650c7214e92960001b610879565b6107a37f2776817742c8c22993075875790330148542938ae110ef6ab8f267ef706a4af860001b610879565b6107d76107ae611d87565b30838573ffffffffffffffffffffffffffffffffffffffff16611e13909392919063ffffffff16565b6108037f5da2fd3e4e0aba3e0ebaaa31a5e11c2c475e5e284d4a25031bec1a61ef79af8660001b610879565b61082f7f506490609ed57923fc054d6738f0d7292775c3f5f7f5ed78dc40ec57ce6c413660001b610879565b7ff9626bca62c59d77fa45a204dc096874ee066a5c5e124aa9ce6c438dbdf7387a82610859611f20565b604051610867929190613175565b60405180910390a15050565b60035481565b50565b6108a87f6699a8491918291651b403dde067fcdc764ded94f14beb11a847e096c5c8af5f60001b61172b565b6108d47f751caa4eda3460302ecbb1086f164e2dc11efb1711aa4a41eaf4a72b7f6a47c860001b61172b565b6109007f33365c588af1224e26d863b70d08daac8390ffa565cc80c7b95b02c1b080607a60001b61172b565b61092c7fe31cb1ffe92c5510a1d00499783bf3b17c4ed0d23cde8ca114b649b3b966ddf160001b61172b565b610934611d87565b73ffffffffffffffffffffffffffffffffffffffff16600160009054906101000a900473ffffffffffffffffffffffffffffffffffffffff1673ffffffffffffffffffffffffffffffffffffffff16146109c3576040517f08c379a00000000000000000000000000000000000000000000000000000000081526004016109ba9061325b565b60405180910390fd5b6109ef7fb115289f9ae8210c83993c689d07499dc68ea03e93922b682e957af41510f58f60001b61172b565b610a1b7fb04d4d099865015c016d310bbe30a596c26b16b973fee1417803f8aad8e706c660001b61172b565b610a477f243e06c4e07f09c2ee4491632e6ce091261ed33471e6c7221f3fa0be2564e90c60001b61172b565b610a737fff840127ee83d145a687e354a48f71f860083787d9f89147ec9c2e2a41f753db60001b61172b565b610a9f7f472644080fc9513db634238d509c8e7af83a563de89d728d0cfbf59db925e92b60001b61172b565b600160009054906101000a900473ffffffffffffffffffffffffffffffffffffffff1673ffffffffffffffffffffffffffffffffffffffff1660008054906101000a900473ffffffffffffffffffffffffffffffffffffffff1673ffffffffffffffffffffffffffffffffffffffff167f8be0079c531659141344cd1fd0a4f28419497f9722a3daafe3b4186f6b6457e060405160405180910390a3610b677f430c64cfc85f407ef5e5d279c71cf6b2f2175f5f3c2c345349e4bee5dd00639d60001b61172b565b610b937f27b6e62881a76e6ca07c5e81d22d60067ee07e8fd5c6bc580e4e3b30f5b0886f60001b61172b565b600160009054906101000a900473ffffffffffffffffffffffffffffffffffffffff166000806101000a81548173ffffffffffffffffffffffffffffffffffffffff021916908373ffffffffffffffffffffffffffffffffffffffff160217905550565b60025481565b50565b610c2c7fcfc81cea229ba935df36a2e4f8affede0368fe56d41ecffb4be8f99c4662656960001b61172b565b610c587f89847358fe2e54d9d9ace109fb91c9c04d2b4fb257a44a7175d2582df1fecc5260001b61172b565b610c847f4aa53da0ca2b5286ae484a46dc3ae29fbba54fd0bdb262c4c3140465a15f830c60001b61172b565b610cb07f7fa50dfecb6fb4ea420396471f3e51110f27e4ee9711dc3690c9f5b74f0a76f960001b61172b565b610cb8611d87565b73ffffffffffffffffffffffffffffffffffffffff1660008054906101000a900473ffffffffffffffffffffffffffffffffffffffff1673ffffffffffffffffffffffffffffffffffffffff1614610d45576040517f08c379a0000000000000000000000000000000000000000000000000000000008152600401610d3c9061327b565b60405180910390fd5b610d717f4f515787e2fb4c18f582974db9360d383fc85930365b36f087916eed82a3355a60001b61172b565b610d9d7fef39037d6104460e554116e0c20d5c0f8a26bc3607b17de6fdc43c3c86fb8b0e60001b61172b565b610dc97f5746298b7b6da93f26fbb0a01068b5a174962956dc6398d69195c9647095037260001b610879565b610df57f2013d44a3939dca492dd5275ad3f281eb53c26bae1d96b24aeac540df7ae279e60001b610879565b610e217fe4db1b38d6c7b9afcab5db55298d331873c5e02ad5035c67492e0a883cc9f43c60001b610879565b610e4d7fcd08e5c1b465c9d7dcdb810775ea27de651fdc436173a3d50829049dcc625e7560001b610879565b600073ffffffffffffffffffffffffffffffffffffffff168173ffffffffffffffffffffffffffffffffffffffff161415610ebd576040517f08c379a0000000000000000000000000000000000000000000000000000000008152600401610eb49061333b565b60405180910390fd5b610ee97f7ad880abb5e6916a2c11f9e40a7c6203b4524deca24304cae28ed0e1081cda9360001b610879565b610f157fbb66afbf1dd7abe2819eb6326b052c7ff4fec231e4cac73f044e8cb6a4c01d4560001b610879565b610f417fd6ea168fe1628754cdc03b7fd2a663ebddba6733cdbf6fbff36dfb53875e317160001b610879565b610f6d7f01dc3b3dcf12f3f5ff4ed20cfb15d3bb727989c4142e84942dded7dd1025dd6960001b610879565b6000600460008373ffffffffffffffffffffffffffffffffffffffff1673ffffffffffffffffffffffffffffffffffffffff1681526020019081526020016000205411610fef576040517f08c379a0000000000000000000000000000000000000000000000000000000008152600401610fe6906132bb565b60405180910390fd5b61101b7f097d42a6e3611dc9c093109dd7ad9d87f7f9bdecb71d4bd25c29a17712e15a7e60001b610879565b6110477fb08c24d9ddf5f4c04f7b2e65190904ad3486cd6a32fc5582a745967386c51b7860001b610879565b6110737fbdb6308b3ceafdb3ba1673967ae0b1864b9371794167be540b14f113a9d39c8360001b610879565b61109f7f4ee80d3b2e1b067c441c215ae6230eb009e15566592f9cab49025281eaf91f2860001b610879565b6003546110aa611f20565b116110ea576040517f08c379a00000000000000000000000000000000000000000000000000000000081526004016110e1906132db565b60405180910390fd5b6111167fd9e1a752510d079f47bb48cf6a45bfa1cf51e8b345c695d700c06dd624c94f7560001b610879565b6111427fb89fa5f9c2ab14fb48a043e3847ec31af6fa443a54e1abda38a2072ffb907a5160001b610879565b61116e7f06bff3c791df4347810f220e2f3882f05ed22d6231c912a9f6f94fb0a487101e60001b610879565b6000600460008373ffffffffffffffffffffffffffffffffffffffff1673ffffffffffffffffffffffffffffffffffffffff1681526020019081526020016000205490506111de7f655b0f36f2a58361d51ff862c9687da0b7167c2cd833331c5739e8d16772466460001b610879565b61120a7f97117d5ffc07b8c62103f5ed58f97d5ede0602b79404cb240c48b5b713455b0960001b610879565b6000600460008473ffffffffffffffffffffffffffffffffffffffff1673ffffffffffffffffffffffffffffffffffffffff1681526020019081526020016000208190555061127b7f0a10ec2dbefbb96e95a68abb822e2f9a21def4f819327b0edd0d86082644699660001b610879565b6112a77ffc416dfa36387c7975df2c3b297e9dde6b7102bf82bb393fd0f240ca638524cb60001b610879565b6112d96112b2611d87565b828473ffffffffffffffffffffffffffffffffffffffff16611fac9092919063ffffffff16565b6113057fadf74b33f70609b3340ccf19f57426325a1192927ccdcd48f792160b9724b2cc60001b610879565b6113317f232765f4c8fdf908c4eaa4d1557fb897a55ef052266eb2f089e8a0212da154a660001b610879565b7f884edad9ce6fa2440d8a54cc123490eb96d2768479d49ff9c7366125a94243648261135b611f20565b604051611369929190613175565b60405180910390a15050565b60008054906101000a900473ffffffffffffffffffffffffffffffffffffffff1681565b60006113c77fcfc81cea229ba935df36a2e4f8affede0368fe56d41ecffb4be8f99c4662656960001b61172b565b6113f37f89847358fe2e54d9d9ace109fb91c9c04d2b4fb257a44a7175d2582df1fecc5260001b61172b565b61141f7f4aa53da0ca2b5286ae484a46dc3ae29fbba54fd0bdb262c4c3140465a15f830c60001b61172b565b61144b7f7fa50dfecb6fb4ea420396471f3e51110f27e4ee9711dc3690c9f5b74f0a76f960001b61172b565b611453611d87565b73ffffffffffffffffffffffffffffffffffffffff1660008054906101000a900473ffffffffffffffffffffffffffffffffffffffff1673ffffffffffffffffffffffffffffffffffffffff16146114e0576040517f08c379a00000000000000000000000000000000000000000000000000000000081526004016114d79061327b565b60405180910390fd5b61150c7f4f515787e2fb4c18f582974db9360d383fc85930365b36f087916eed82a3355a60001b61172b565b6115387fef39037d6104460e554116e0c20d5c0f8a26bc3607b17de6fdc43c3c86fb8b0e60001b61172b565b6115647f05feabae5f0531ac6f852edac83c69fb0cb90488b8fc974f77b07f261cbcd9f660001b610879565b6115907f0cfc2bd6b1f83c304c7c11dffdfb7051c5bae52ee839d3be4e4a00a1b764791460001b610879565b6115bc7fb24bce465721e25ef24b046d5712d53edb9855553397c6d059794ad6ba54dc9f60001b610879565b6115e87f028d3699dcefa721e89cda5b1b6b3219ecdce8770fb6f24c327f62ee5d55300760001b610879565b6000821161162b576040517f08c379a00000000000000000000000000000000000000000000000000000000081526004016116229061329b565b60405180910390fd5b6116577f3963a154e96f6bf7c4cd7d3433e6d18786b0af55e685372553cc6edc2e49249560001b610879565b6116837f4406e6376f6c223426ea61a92a0644851e07a7e519f6618e20d5741a8114ea3160001b610879565b6116af7f61d92107b432a049d567004b013e3415bce6ca44f3e60c8b250fdebf663cfa4d60001b610879565b6116c482600254611b9c90919063ffffffff16565b6003819055506116f67f470cb64d83551f1977ecd56453022ff99ab238beff7e6b4c9bcd5cfab948c9d560001b610879565b6117227f6d38886247fd2aa1bc685443b50900adf2a310cb6250cc5d6bf96cfe6d90f42260001b610879565b60019050919050565b50565b60046020528060005260406000206000915090505481565b6117727fcfc81cea229ba935df36a2e4f8affede0368fe56d41ecffb4be8f99c4662656960001b61172b565b61179e7f89847358fe2e54d9d9ace109fb91c9c04d2b4fb257a44a7175d2582df1fecc5260001b61172b565b6117ca7f4aa53da0ca2b5286ae484a46dc3ae29fbba54fd0bdb262c4c3140465a15f830c60001b61172b565b6117f67f7fa50dfecb6fb4ea420396471f3e51110f27e4ee9711dc3690c9f5b74f0a76f960001b61172b565b6117fe611d87565b73ffffffffffffffffffffffffffffffffffffffff1660008054906101000a900473ffffffffffffffffffffffffffffffffffffffff1673ffffffffffffffffffffffffffffffffffffffff161461188b576040517f08c379a00000000000000000000000000000000000000000000000000000000081526004016118829061327b565b60405180910390fd5b6118b77f4f515787e2fb4c18f582974db9360d383fc85930365b36f087916eed82a3355a60001b61172b565b6118e37fef39037d6104460e554116e0c20d5c0f8a26bc3607b17de6fdc43c3c86fb8b0e60001b61172b565b61190f7f2aba0c8f299f93ba1a34c7bf0f8ed25ebe3ffab4d39789b822d52c8bff35bc9660001b61172b565b61193b7fd2103ed48ecc8cb7480e23e120b30e6ac6c87ece3c0c3b40abbb1f9b2a1d088d60001b61172b565b6119677fe1f4025979231da49a64dccca8d31101ce28d086ed356e472845f1b96df3bf8a60001b61172b565b6119937f95c9e3e731fc34a6de6ba6a725e3eb82203871e915bfcee9cfb12def16cec9c660001b61172b565b600073ffffffffffffffffffffffffffffffffffffffff168173ffffffffffffffffffffffffffffffffffffffff161415611a03576040517f08c379a00000000000000000000000000000000000000000000000000000000081526004016119fa906131db565b60405180910390fd5b611a2f7f94e545e82ad476ca1e1046d351ab620240de036f8d9eb2432d3c0c36d6767fae60001b61172b565b611a5b7fb723d07c5458e4840aa666d72eb5325b6b419c9577d27b66b165b4b3540cd3ad60001b61172b565b611a877f9b7fbf3c4f6a4b8ef7a3644bb96b464de1629ae33ace0b5e9d36fab3552f6d3360001b61172b565b8073ffffffffffffffffffffffffffffffffffffffff1660008054906101000a900473ffffffffffffffffffffffffffffffffffffffff1673ffffffffffffffffffffffffffffffffffffffff167f8be0079c531659141344cd1fd0a4f28419497f9722a3daafe3b4186f6b6457e060405160405180910390a3611b2d7f627240ffe4ff3f93635ab8a6b6c045fb4e5fec5f46f55e6d5a3dfb1acc6446ea60001b61172b565b611b597fc86aaf557bd94425ec2cf93530ece2c27d046d4df5132edefe6db0a6aa4b057560001b61172b565b806000806101000a81548173ffffffffffffffffffffffffffffffffffffffff021916908373ffffffffffffffffffffffffffffffffffffffff16021790555050565b6000611bca7f363a5d5dbb02f8d9c56b2e699c893b3283dc2c059749b4352b7520e5b636b17460001b6120b6565b611bf67f02160ecf417afc0bffef7c4a16ab19bb7441fccb7017c45273c8206e786c09d260001b6120b6565b611c227f3a72c1e0374f06721aefffadf1a36b60a05449aa23db18931faca82fd5b6377660001b6120b6565b60008284611c3091906133a8565b9050611c5e7f5c36927f89ec323194a2ad7d874bd5f44a445c638d7767806cfe31addd219cd560001b6120b6565b611c8a7f88c33a10f32a2551f70feca399815fc012c4f75d68de0398361e4fce2b1935ab60001b6120b6565b611cb67f35a4261621e1e486c653c7cd6f9913629c957dcb5fe4b64755f45db4c98cd30c60001b6120b6565b83811015611cf9576040517f08c379a0000000000000000000000000000000000000000000000000000000008152600401611cf0906131fb565b60405180910390fd5b611d257f9a9d8b2275418e16945094fe415f631f59daefd8548528e555b5b1fdb3c623e260001b6120b6565b611d517f304bd77b422983269b8432b4a4fb8b2f6a4196225679282a43446499cd04e2bf60001b6120b6565b611d7d7f647bae1197a5fdbce2a199ae91c501326c71c632848829b5b296f8354f3fa11060001b6120b6565b8091505092915050565b6000611db57fefe8af90f2925d762dc37aa8dce6c9338523bde69737db1387f2a2b8775ac70160001b610bfd565b611de17f367dae95a5e6bb8212a60f815c938054ac7c5eaffa5f0e344fc9dde9eb154ded60001b610bfd565b611e0d7f0a90da0cd4adc3967b626b3a5b33a17130f26ef286a00f2df4b7c9c69badf33860001b610bfd565b33905090565b611e3f7fd1833fa1a50ff54433c81ce6b2813e98fe9e26a5c213653019d13dd25726904c60001b6120b9565b611e6b7f9e8f4cc54db156bb92672e2ac3bbba341c6095ecd9631f3604b3e07473bebd0360001b6120b9565b611e977f15644a4bad204c384bfe2df707f2eea5f5172a7cc3755fccf68848ba7865bb3060001b6120b9565b611f1a846323b872dd60e01b858585604051602401611eb89392919061313e565b604051602081830303815290604052907bffffffffffffffffffffffffffffffffffffffffffffffffffffffff19166020820180517bffffffffffffffffffffffffffffffffffffffffffffffffffffffff83818316178352505050506120bc565b50505050565b6000611f4e7fdb0bf39366d756aa236d41bbfcec4365a049e1bc6da397cf6c504e8f24fd513e60001b610879565b611f7a7f792bbe93256c50f72a893fd536c11b55404b887889785b71b3b42cee526661c860001b610879565b611fa67f48ee3a88d31b36dec3f85283add664e2ca93cba3ed5c03456e000b5c8876819e60001b610879565b42905090565b611fd87faacf452a9f3a95ec900725832d9ca4b15306e9d923a12bca1cd374e0a31cb79260001b6120b9565b6120047fca244219662db515eda4af3aebe16c808eb21d90d678dfa911e47aaad7dd3e1060001b6120b9565b6120307f0e4f9a846c988b45f0801af0f092b958041135868cbd36955e4f87c69e1fd4da60001b6120b9565b6120b18363a9059cbb60e01b848460405160240161204f929190613175565b604051602081830303815290604052907bffffffffffffffffffffffffffffffffffffffffffffffffffffffff19166020820180517bffffffffffffffffffffffffffffffffffffffffffffffffffffffff83818316178352505050506120bc565b505050565b50565b50565b6120e87fb0479028969a5ba9741b180dbb3d9b3549df961e5ff6932433a9082380a741d560001b6120b9565b6121147fc3c356934d8fc854f520725262c46eab96efc89d522636213649724efc4a43eb60001b6120b9565b6121407f46a3c5dfdca4c649ca6507a7d232f2faf5d49d8cd1c884c587c303beb91f2e2a60001b6120b9565b60006121a2826040518060400160405280602081526020017f5361666545524332303a206c6f772d6c6576656c2063616c6c206661696c65648152508573ffffffffffffffffffffffffffffffffffffffff1661236c9092919063ffffffff16565b90506121d07f9b4c5586f3e6c9df13b65fca3d0834b5ab0fdf2193ca51f49eabf2a73889aaab60001b6120b9565b6121fc7f4e858ffeafc92a0b06e794c6fceee08466bc0a15ac735e1b85799362bdb123d360001b6120b9565b60008151111561233a576122327fdbbc5ff94d5ff3462e649fd56f24bb97cc8ddf6cdf9be956954a16fe671502a760001b6120b9565b61225e7fe40625f879f726bd0b572cbbd0a649abd9e6f07c0f37bf298252cf8f4b45c5a360001b6120b9565b61228a7f7f763ad5a092ae5344a3a5df5e2564e6a6fa46c6e7d86d9ad1296980c4153bb260001b6120b9565b6122b67fc0afdf9a49e1be1b7889baa0f89e05523817b4e2359e5641b4f5b4d7e7dae58d60001b6120b9565b808060200190518101906122ca9190612bd7565b612309576040517f08c379a00000000000000000000000000000000000000000000000000000000081526004016123009061331b565b60405180910390fd5b6123357fd8c6a9adb5ba1414ee3e43cd44257521f065a0ae713a2d3c81c953c5b236f94060001b6120b9565b612367565b6123667fec21488944f4a85cbf79d87397f23db4c9b5eb5031f01a94aac994ea9a935e3760001b6120b9565b5b505050565b606061239a7f18206eb661d245c93f3c73c5f933688bdeb617e67fd53d2f356f38b8759e08db60001b612408565b6123c67f4ccf8ea46258d3a4aa59347485ff05deb4a063031559378ba950c0e5d864dc1e60001b612408565b6123f27f7270a2eb293424ee49f099ab16ee519b9fb69718e0d680f537c4fe0304027cf760001b612408565b6123ff848460008561240b565b90509392505050565b50565b60606124397f45a44031070ecd1fde995b4e1945bb36303908f3bfd087d5f005248fc61dcbf160001b612408565b6124657f9d1cd1d7e54a48ab2f1d3486e7d222d25b72233d2af25f0f50bdefdcfe794d0160001b612408565b6124917f11960a4d8b1e4d6c68ea3238a2edee9b3d25d5209e3a0b737f8daf9f7ea37a3460001b612408565b6124bd7fc3c7dd40f3967e62990a3ff908615f27253e7997b38dc17ee21373dc3a82063560001b612408565b82471015612500576040517f08c379a00000000000000000000000000000000000000000000000000000000081526004016124f79061323b565b60405180910390fd5b61252c7fc7b0142204661b35a2f207a8fada5653faba5a66d98de9071b943066228359b560001b612408565b6125587fb8a5455fb1ff522ab276de3b48e1eb7ea916f8221d3cdc34c2cccb6aa151535660001b612408565b6125847f39633a263b871e07c05e7e9d6d8be3b006e918703a091bac9e5befb2f5f0320b60001b612408565b6125b07f172b7a6c5521cf2af703f46022ad83d6e23bfe7bd6a04bbb8ff07605def5187760001b612408565b6125b98561275b565b6125f8576040517f08c379a00000000000000000000000000000000000000000000000000000000081526004016125ef906132fb565b60405180910390fd5b6126247fc2cd3e01f290e80b77dfac74fd7a1bbf58cfab619fe61ad21326e5a2ab4a3ee560001b612408565b6126507fb381f78318b01a4d9f275feeb98907db92d946f1e6850151b57bee46ad2f72bc60001b612408565b61267c7f87dc71edcaf32f5cc7262cbb1f1f729e93eb3f774cd8dfeb3cd7ca2e216d091060001b612408565b6000808673ffffffffffffffffffffffffffffffffffffffff1685876040516126a5919061310c565b60006040518083038185875af1925050503d80600081146126e2576040519150601f19603f3d011682016040523d82523d6000602084013e6126e7565b606091505b50915091506127187f07dbd685366fd998ff54d1d834738baf391db8a4ea18533110a90d9222efb05560001b612408565b6127447fa346ce598820e6add7ea8010c52eea0ba2f1fd852a4fc511d4cd8e14f117194660001b612408565b61274f828286612877565b92505050949350505050565b60006127897fd259232c70040373bfd0879571f9f7019b1109e64071c3f318cfa989c7b30fe460001b612408565b6127b57f8da102a4f2140547f720950ace25590fd9121d41197ec575c98a5e23d4c24f6060001b612408565b6127e17f8842349ba38595755be34750a891591c0379078716e4c7ac2ac6522ccd3f650260001b612408565b600061280f7ffb863466ec7599b1a1875ee7a82982f89fe347f34a3a20f1b95e6e8cc14ad6cd60001b612408565b823b905061283f7f3607fc988153232f96598c154ba743b1a7d75ab64d21b6b0258ee82bebc58ff560001b612408565b61286b7f150fce69329aeeeb664a980a44b2560a8cceeeb30db3a363cf1d08776c3ab78960001b612408565b60008111915050919050565b60606128a57fc1c6dd7ffd5ceb2be0cee867814cdc04a29dfc03d375a2e5763ec6c19e8d217660001b612408565b6128d17f2ba6c142783cd4351cbc530033ac5cbb202e2384af79a023a5f705767831b2e360001b612408565b6128fd7f55e081dd8f157993189adde0107a559e6af5ffd2279aee644144e2bf7ad6be0860001b612408565b831561298f5761292f7fa9523c56b09ab15e929c2f0026b9d11bee8d52cc467b12c2564c0346d60a941960001b612408565b61295b7f341beb337f26c1fbdf3214c730e8166537b50d60cf5050176144e82156d95e4360001b612408565b6129877fcc40fbcf61f13109f4f9524038e79ff505a8b825796468708e8f81ddf9a199e660001b612408565b829050612b3e565b6129bb7fdbde2076ff081a187377ff32e324e0425fb10fdc4e78decc113c1e97d6c7e26b60001b612408565b6129e67e1bac1ee10f5c181e3c491d97d7040e97ccab3d6e266a451902205be8b9722260001b612408565b612a127f9e70ebe45d06e433449f51795c1206d8be88b33d60b01eb32e27021e120a35bd60001b612408565b600083511115612a7d57612a487fc9e518cbb5fc1c3415bdc6ce765421e3f79e04ffcf5a841b55fd9021cfaa7be660001b612408565b612a747f6300e353514ca95964d10f1fdd139895e7bb14001c1012d22e962a482ca801f660001b612408565b82518084602001fd5b612aa97f9f9a7c981f2fa590f0a991193e24864b0801156e2384822875e4853cc3ec5f3560001b612408565b612ad57fb6b0b75971372d9f1c446f7068af6b74dc19d2f243d54bd4a61de6bb2e6efdfe60001b612408565b612b017f7b3b6b4722c104ab15666f9689111f4b3eea65e153f67853a65a5606bb5e125560001b612408565b816040517f08c379a0000000000000000000000000000000000000000000000000000000008152600401612b3591906131b9565b60405180910390fd5b9392505050565b600081359050612b54816134d5565b92915050565b600081519050612b69816134ec565b92915050565b600081359050612b7e81613503565b92915050565b600081359050612b938161351a565b92915050565b600081359050612ba881613531565b92915050565b600060208284031215612bc057600080fd5b6000612bce84828501612b45565b91505092915050565b600060208284031215612be957600080fd5b6000612bf784828501612b5a565b91505092915050565b600060208284031215612c1257600080fd5b6000612c2084828501612b6f565b91505092915050565b600060208284031215612c3b57600080fd5b6000612c4984828501612b84565b91505092915050565b60008060408385031215612c6557600080fd5b6000612c7385828601612b84565b9250506020612c8485828601612b99565b9150509250929050565b600060208284031215612ca057600080fd5b6000612cae84828501612b99565b91505092915050565b612cc0816133fe565b82525050565b612ccf81613410565b82525050565b6000612ce082613376565b612cea818561338c565b9350612cfa818560208601613462565b80840191505092915050565b6000612d1182613381565b612d1b8185613397565b9350612d2b818560208601613462565b612d34816134c4565b840191505092915050565b6000612d4c602683613397565b91507f4f776e61626c653a206e6577206f776e657220697320746865207a65726f206160008301527f64647265737300000000000000000000000000000000000000000000000000006020830152604082019050919050565b6000612db2601b83613397565b91507f536166654d6174683a206164646974696f6e206f766572666c6f7700000000006000830152602082019050919050565b6000612df2601e83613397565b91507f54696d656c6f636b57616c6c65743a20696e76616c696420616d6f756e7400006000830152602082019050919050565b6000612e32602683613397565b91507f416464726573733a20696e73756666696369656e742062616c616e636520666f60008301527f722063616c6c00000000000000000000000000000000000000000000000000006020830152604082019050919050565b6000612e98602083613397565b91507f4f776e61626c653a2063616c6c6572206973206e6f74207468652061646d696e6000830152602082019050919050565b6000612ed8602083613397565b91507f4f776e61626c653a2063616c6c6572206973206e6f7420746865206f776e65726000830152602082019050919050565b6000612f18603583613397565b91507f54696d656c6f636b57616c6c65743a20647572616e74696f6e2073686f756c6460008301527f2062652067726561746572207468616e207a65726f00000000000000000000006020830152604082019050919050565b6000612f7e602683613397565b91507f54696d656c6f636b57616c6c65743a20746f6b656e73206e6f7420776974686460008301527f726177626c6500000000000000000000000000000000000000000000000000006020830152604082019050919050565b6000612fe4601d83613397565b91507f54696d656c6f636b57616c6c65743a20746f6b656e73206c6f636b65640000006000830152602082019050919050565b6000613024601d83613397565b91507f416464726573733a2063616c6c20746f206e6f6e2d636f6e74726163740000006000830152602082019050919050565b6000613064602a83613397565b91507f5361666545524332303a204552433230206f7065726174696f6e20646964206e60008301527f6f742073756363656564000000000000000000000000000000000000000000006020830152604082019050919050565b60006130ca601f83613397565b91507f54696d656c6f636b57616c6c65743a20696e76616c69642061646472657373006000830152602082019050919050565b61310681613458565b82525050565b60006131188284612cd5565b915081905092915050565b60006020820190506131386000830184612cb7565b92915050565b60006060820190506131536000830186612cb7565b6131606020830185612cb7565b61316d60408301846130fd565b949350505050565b600060408201905061318a6000830185612cb7565b61319760208301846130fd565b9392505050565b60006020820190506131b36000830184612cc6565b92915050565b600060208201905081810360008301526131d38184612d06565b905092915050565b600060208201905081810360008301526131f481612d3f565b9050919050565b6000602082019050818103600083015261321481612da5565b9050919050565b6000602082019050818103600083015261323481612de5565b9050919050565b6000602082019050818103600083015261325481612e25565b9050919050565b6000602082019050818103600083015261327481612e8b565b9050919050565b6000602082019050818103600083015261329481612ecb565b9050919050565b600060208201905081810360008301526132b481612f0b565b9050919050565b600060208201905081810360008301526132d481612f71565b9050919050565b600060208201905081810360008301526132f481612fd7565b9050919050565b6000602082019050818103600083015261331481613017565b9050919050565b6000602082019050818103600083015261333481613057565b9050919050565b60006020820190508181036000830152613354816130bd565b9050919050565b600060208201905061337060008301846130fd565b92915050565b600081519050919050565b600081519050919050565b600081905092915050565b600082825260208201905092915050565b60006133b382613458565b91506133be83613458565b9250827fffffffffffffffffffffffffffffffffffffffffffffffffffffffffffffffff038211156133f3576133f2613495565b5b828201905092915050565b600061340982613438565b9050919050565b60008115159050919050565b6000819050919050565b6000613431826133fe565b9050919050565b600073ffffffffffffffffffffffffffffffffffffffff82169050919050565b6000819050919050565b60005b83811015613480578082015181840152602081019050613465565b8381111561348f576000848401525b50505050565b7f4e487b7100000000000000000000000000000000000000000000000000000000600052601160045260246000fd5b6000601f19601f8301169050919050565b6134de816133fe565b81146134e957600080fd5b50565b6134f581613410565b811461350057600080fd5b50565b61350c8161341c565b811461351757600080fd5b50565b61352381613426565b811461352e57600080fd5b50565b61353a81613458565b811461354557600080fd5b5056fea2646970667358221220027207e8284fda8acc34ab6b02c5798d3b486603c9c28c34002f7380712bec8864736f6c63430008000033",
  "linkReferences": {},
  "deployedLinkReferences": {}
}