{
  "_format": "hh-sol-artifact-1",
  "contractName": "MOCKERC20",
  "sourceName": "contracts/MOCKERC20.sol",
  "abi": [
    {
      "inputs": [
        {
          "internalType": "string",
          "name": "_name",
          "type": "string"
        },
        {
          "internalType": "string",
          "name": "_symbol",
          "type": "string"
        },
        {
          "internalType": "uint256",
          "name": "_supply",
          "type": "uint256"
        }
      ],
      "stateMutability": "nonpayable",
      "type": "constructor"
    },
    {
      "anonymous": false,
      "inputs": [
        {
          "indexed": true,
          "internalType": "address",
          "name": "owner",
          "type": "address"
        },
        {
          "indexed": true,
          "internalType": "address",
          "name": "spender",
          "type": "address"
        },
        {
          "indexed": false,
          "internalType": "uint256",
          "name": "value",
          "type": "uint256"
        }
      ],
      "name": "Approval",
      "type": "event"
    },
    {
      "anonymous": false,
      "inputs": [
        {
          "indexed": true,
          "internalType": "address",
          "name": "previousOwner",
          "type": "address"
        },
        {
          "indexed": true,
          "internalType": "address",
          "name": "newOwner",
          "type": "address"
        }
      ],
      "name": "OwnershipTransferred",
      "type": "event"
    },
    {
      "anonymous": false,
      "inputs": [
        {
          "indexed": true,
          "internalType": "address",
          "name": "from",
          "type": "address"
        },
        {
          "indexed": true,
          "internalType": "address",
          "name": "to",
          "type": "address"
        },
        {
          "indexed": false,
          "internalType": "uint256",
          "name": "value",
          "type": "uint256"
        }
      ],
      "name": "Transfer",
      "type": "event"
    },
    {
      "inputs": [
        {
          "internalType": "address",
          "name": "owner",
          "type": "address"
        },
        {
          "internalType": "address",
          "name": "spender",
          "type": "address"
        }
      ],
      "name": "allowance",
      "outputs": [
        {
          "internalType": "uint256",
          "name": "",
          "type": "uint256"
        }
      ],
      "stateMutability": "view",
      "type": "function"
    },
    {
      "inputs": [
        {
          "internalType": "address",
          "name": "spender",
          "type": "address"
        },
        {
          "internalType": "uint256",
          "name": "amount",
          "type": "uint256"
        }
      ],
      "name": "approve",
      "outputs": [
        {
          "internalType": "bool",
          "name": "",
          "type": "bool"
        }
      ],
      "stateMutability": "nonpayable",
      "type": "function"
    },
    {
      "inputs": [
        {
          "internalType": "address",
          "name": "account",
          "type": "address"
        }
      ],
      "name": "balanceOf",
      "outputs": [
        {
          "internalType": "uint256",
          "name": "",
          "type": "uint256"
        }
      ],
      "stateMutability": "view",
      "type": "function"
    },
    {
      "inputs": [
        {
          "internalType": "bytes32",
          "name": "c__0xd406f25c",
          "type": "bytes32"
        }
      ],
      "name": "c_0xd406f25c",
      "outputs": [],
      "stateMutability": "pure",
      "type": "function"
    },
    {
      "inputs": [],
      "name": "decimals",
      "outputs": [
        {
          "internalType": "uint8",
          "name": "",
          "type": "uint8"
        }
      ],
      "stateMutability": "view",
      "type": "function"
    },
    {
      "inputs": [
        {
          "internalType": "address",
          "name": "spender",
          "type": "address"
        },
        {
          "internalType": "uint256",
          "name": "subtractedValue",
          "type": "uint256"
        }
      ],
      "name": "decreaseAllowance",
      "outputs": [
        {
          "internalType": "bool",
          "name": "",
          "type": "bool"
        }
      ],
      "stateMutability": "nonpayable",
      "type": "function"
    },
    {
      "inputs": [
        {
          "internalType": "address",
          "name": "spender",
          "type": "address"
        },
        {
          "internalType": "uint256",
          "name": "addedValue",
          "type": "uint256"
        }
      ],
      "name": "increaseAllowance",
      "outputs": [
        {
          "internalType": "bool",
          "name": "",
          "type": "bool"
        }
      ],
      "stateMutability": "nonpayable",
      "type": "function"
    },
    {
      "inputs": [],
      "name": "name",
      "outputs": [
        {
          "internalType": "string",
          "name": "",
          "type": "string"
        }
      ],
      "stateMutability": "view",
      "type": "function"
    },
    {
      "inputs": [],
      "name": "owner",
      "outputs": [
        {
          "internalType": "address",
          "name": "",
          "type": "address"
        }
      ],
      "stateMutability": "view",
      "type": "function"
    },
    {
      "inputs": [],
      "name": "renounceOwnership",
      "outputs": [],
      "stateMutability": "nonpayable",
      "type": "function"
    },
    {
      "inputs": [],
      "name": "symbol",
      "outputs": [
        {
          "internalType": "string",
          "name": "",
          "type": "string"
        }
      ],
      "stateMutability": "view",
      "type": "function"
    },
    {
      "inputs": [],
      "name": "totalSupply",
      "outputs": [
        {
          "internalType": "uint256",
          "name": "",
          "type": "uint256"
        }
      ],
      "stateMutability": "view",
      "type": "function"
    },
    {
      "inputs": [
        {
          "internalType": "address",
          "name": "recipient",
          "type": "address"
        },
        {
          "internalType": "uint256",
          "name": "amount",
          "type": "uint256"
        }
      ],
      "name": "transfer",
      "outputs": [
        {
          "internalType": "bool",
          "name": "",
          "type": "bool"
        }
      ],
      "stateMutability": "nonpayable",
      "type": "function"
    },
    {
      "inputs": [
        {
          "internalType": "address",
          "name": "sender",
          "type": "address"
        },
        {
          "internalType": "address",
          "name": "recipient",
          "type": "address"
        },
        {
          "internalType": "uint256",
          "name": "amount",
          "type": "uint256"
        }
      ],
      "name": "transferFrom",
      "outputs": [
        {
          "internalType": "bool",
          "name": "",
          "type": "bool"
        }
      ],
      "stateMutability": "nonpayable",
      "type": "function"
    },
    {
      "inputs": [
        {
          "internalType": "address",
          "name": "newOwner",
          "type": "address"
        }
      ],
      "name": "transferOwnership",
      "outputs": [],
      "stateMutability": "nonpayable",
      "type": "function"
    }
  ],
  "bytecode": "0x60806040523480156200001157600080fd5b506040516200205038038062002050833981810160405281019062000037919062000483565b82828160039080519060200190620000519291906200034a565b5080600490805190602001906200006a9291906200034a565b50505060006200007f620001d560201b60201c565b905080600560006101000a81548173ffffffffffffffffffffffffffffffffffffffff021916908373ffffffffffffffffffffffffffffffffffffffff1602179055508073ffffffffffffffffffffffffffffffffffffffff16600073ffffffffffffffffffffffffffffffffffffffff167f8be0079c531659141344cd1fd0a4f28419497f9722a3daafe3b4186f6b6457e060405160405180910390a350620001527ff100e1f046978afa536a70d9d95cbecffbbd9cc7a4c1410d0b05e6fc043086f660001b620001dd60201b60201c565b620001867fba9eba099ac9e4b11fb93ba3a0788a8244ea96dc3250093890a227ceb443071460001b620001dd60201b60201c565b620001ba7f38af620cddc446243c6f0b0f46b32d04b77d62686a642b64f0c974271da1603260001b620001dd60201b60201c565b620001cc3382620001e060201b60201c565b5050506200078f565b600033905090565b50565b600073ffffffffffffffffffffffffffffffffffffffff168273ffffffffffffffffffffffffffffffffffffffff16141562000253576040517f08c379a00000000000000000000000000000000000000000000000000000000081526004016200024a906200055e565b60405180910390fd5b62000267600083836200034560201b60201c565b80600260008282546200027b919062000615565b92505081905550806000808473ffffffffffffffffffffffffffffffffffffffff1673ffffffffffffffffffffffffffffffffffffffff1681526020019081526020016000206000828254620002d2919062000615565b925050819055508173ffffffffffffffffffffffffffffffffffffffff16600073ffffffffffffffffffffffffffffffffffffffff167fddf252ad1be2c89b69c2b068fc378daa952ba7f163c4a11628f55a4df523b3ef8360405162000339919062000580565b60405180910390a35050565b505050565b8280546200035890620006b2565b90600052602060002090601f0160209004810192826200037c5760008555620003c8565b82601f106200039757805160ff1916838001178555620003c8565b82800160010185558215620003c8579182015b82811115620003c7578251825591602001919060010190620003aa565b5b509050620003d79190620003db565b5090565b5b80821115620003f6576000816000905550600101620003dc565b5090565b6000620004116200040b84620005d1565b6200059d565b9050828152602081018484840111156200042a57600080fd5b620004378482856200067c565b509392505050565b600082601f8301126200045157600080fd5b815162000463848260208601620003fa565b91505092915050565b6000815190506200047d8162000775565b92915050565b6000806000606084860312156200049957600080fd5b600084015167ffffffffffffffff811115620004b457600080fd5b620004c2868287016200043f565b935050602084015167ffffffffffffffff811115620004e057600080fd5b620004ee868287016200043f565b925050604062000501868287016200046c565b9150509250925092565b60006200051a601f8362000604565b91507f45524332303a206d696e7420746f20746865207a65726f2061646472657373006000830152602082019050919050565b620005588162000672565b82525050565b6000602082019050818103600083015262000579816200050b565b9050919050565b60006020820190506200059760008301846200054d565b92915050565b6000604051905081810181811067ffffffffffffffff82111715620005c757620005c662000746565b5b8060405250919050565b600067ffffffffffffffff821115620005ef57620005ee62000746565b5b601f19601f8301169050602081019050919050565b600082825260208201905092915050565b6000620006228262000672565b91506200062f8362000672565b9250827fffffffffffffffffffffffffffffffffffffffffffffffffffffffffffffffff03821115620006675762000666620006e8565b5b828201905092915050565b6000819050919050565b60005b838110156200069c5780820151818401526020810190506200067f565b83811115620006ac576000848401525b50505050565b60006002820490506001821680620006cb57607f821691505b60208210811415620006e257620006e162000717565b5b50919050565b7f4e487b7100000000000000000000000000000000000000000000000000000000600052601160045260246000fd5b7f4e487b7100000000000000000000000000000000000000000000000000000000600052602260045260246000fd5b7f4e487b7100000000000000000000000000000000000000000000000000000000600052604160045260246000fd5b620007808162000672565b81146200078c57600080fd5b50565b6118b1806200079f6000396000f3fe608060405234801561001057600080fd5b50600436106100f55760003560e01c8063715018a611610097578063a9059cbb11610066578063a9059cbb1461028a578063dd62ed3e146102ba578063f2fde38b146102ea578063f795acaa14610306576100f5565b8063715018a6146102145780638da5cb5b1461021e57806395d89b411461023c578063a457c2d71461025a576100f5565b806323b872dd116100d357806323b872dd14610166578063313ce5671461019657806339509351146101b457806370a08231146101e4576100f5565b806306fdde03146100fa578063095ea7b31461011857806318160ddd14610148575b600080fd5b610102610322565b60405161010f91906114e5565b60405180910390f35b610132600480360381019061012d9190611065565b6103b4565b60405161013f91906114ca565b60405180910390f35b6101506103d2565b60405161015d9190611627565b60405180910390f35b610180600480360381019061017b9190611016565b6103dc565b60405161018d91906114ca565b60405180910390f35b61019e6104dd565b6040516101ab9190611642565b60405180910390f35b6101ce60048036038101906101c99190611065565b6104e6565b6040516101db91906114ca565b60405180910390f35b6101fe60048036038101906101f99190610fb1565b610592565b60405161020b9190611627565b60405180910390f35b61021c6105da565b005b610226610717565b60405161023391906114af565b60405180910390f35b610244610741565b60405161025191906114e5565b60405180910390f35b610274600480360381019061026f9190611065565b6107d3565b60405161028191906114ca565b60405180910390f35b6102a4600480360381019061029f9190611065565b6108c7565b6040516102b191906114ca565b60405180910390f35b6102d460048036038101906102cf9190610fda565b6108e5565b6040516102e19190611627565b60405180910390f35b61030460048036038101906102ff9190610fb1565b61096c565b005b610320600480360381019061031b91906110a1565b610b18565b005b60606003805461033190611795565b80601f016020809104026020016040519081016040528092919081815260200182805461035d90611795565b80156103aa5780601f1061037f576101008083540402835291602001916103aa565b820191906000526020600020905b81548152906001019060200180831161038d57829003601f168201915b5050505050905090565b60006103c86103c1610b1b565b8484610b23565b6001905092915050565b6000600254905090565b60006103e9848484610cee565b6000600160008673ffffffffffffffffffffffffffffffffffffffff1673ffffffffffffffffffffffffffffffffffffffff1681526020019081526020016000206000610434610b1b565b73ffffffffffffffffffffffffffffffffffffffff1673ffffffffffffffffffffffffffffffffffffffff168152602001908152602001600020549050828110156104b4576040517f08c379a00000000000000000000000000000000000000000000000000000000081526004016104ab90611587565b60405180910390fd5b6104d1856104c0610b1b565b85846104cc91906116cf565b610b23565b60019150509392505050565b60006012905090565b60006105886104f3610b1b565b848460016000610501610b1b565b73ffffffffffffffffffffffffffffffffffffffff1673ffffffffffffffffffffffffffffffffffffffff16815260200190815260200160002060008873ffffffffffffffffffffffffffffffffffffffff1673ffffffffffffffffffffffffffffffffffffffff168152602001908152602001600020546105839190611679565b610b23565b6001905092915050565b60008060008373ffffffffffffffffffffffffffffffffffffffff1673ffffffffffffffffffffffffffffffffffffffff168152602001908152602001600020549050919050565b6105e2610b1b565b73ffffffffffffffffffffffffffffffffffffffff16610600610717565b73ffffffffffffffffffffffffffffffffffffffff1614610656576040517f08c379a000000000000000000000000000000000000000000000000000000000815260040161064d906115a7565b60405180910390fd5b600073ffffffffffffffffffffffffffffffffffffffff16600560009054906101000a900473ffffffffffffffffffffffffffffffffffffffff1673ffffffffffffffffffffffffffffffffffffffff167f8be0079c531659141344cd1fd0a4f28419497f9722a3daafe3b4186f6b6457e060405160405180910390a36000600560006101000a81548173ffffffffffffffffffffffffffffffffffffffff021916908373ffffffffffffffffffffffffffffffffffffffff160217905550565b6000600560009054906101000a900473ffffffffffffffffffffffffffffffffffffffff16905090565b60606004805461075090611795565b80601f016020809104026020016040519081016040528092919081815260200182805461077c90611795565b80156107c95780601f1061079e576101008083540402835291602001916107c9565b820191906000526020600020905b8154815290600101906020018083116107ac57829003601f168201915b5050505050905090565b600080600160006107e2610b1b565b73ffffffffffffffffffffffffffffffffffffffff1673ffffffffffffffffffffffffffffffffffffffff16815260200190815260200160002060008573ffffffffffffffffffffffffffffffffffffffff1673ffffffffffffffffffffffffffffffffffffffff1681526020019081526020016000205490508281101561089f576040517f08c379a000000000000000000000000000000000000000000000000000000000815260040161089690611607565b60405180910390fd5b6108bc6108aa610b1b565b8585846108b791906116cf565b610b23565b600191505092915050565b60006108db6108d4610b1b565b8484610cee565b6001905092915050565b6000600160008473ffffffffffffffffffffffffffffffffffffffff1673ffffffffffffffffffffffffffffffffffffffff16815260200190815260200160002060008373ffffffffffffffffffffffffffffffffffffffff1673ffffffffffffffffffffffffffffffffffffffff16815260200190815260200160002054905092915050565b610974610b1b565b73ffffffffffffffffffffffffffffffffffffffff16610992610717565b73ffffffffffffffffffffffffffffffffffffffff16146109e8576040517f08c379a00000000000000000000000000000000000000000000000000000000081526004016109df906115a7565b60405180910390fd5b600073ffffffffffffffffffffffffffffffffffffffff168173ffffffffffffffffffffffffffffffffffffffff161415610a58576040517f08c379a0000000000000000000000000000000000000000000000000000000008152600401610a4f90611527565b60405180910390fd5b8073ffffffffffffffffffffffffffffffffffffffff16600560009054906101000a900473ffffffffffffffffffffffffffffffffffffffff1673ffffffffffffffffffffffffffffffffffffffff167f8be0079c531659141344cd1fd0a4f28419497f9722a3daafe3b4186f6b6457e060405160405180910390a380600560006101000a81548173ffffffffffffffffffffffffffffffffffffffff021916908373ffffffffffffffffffffffffffffffffffffffff16021790555050565b50565b600033905090565b600073ffffffffffffffffffffffffffffffffffffffff168373ffffffffffffffffffffffffffffffffffffffff161415610b93576040517f08c379a0000000000000000000000000000000000000000000000000000000008152600401610b8a906115e7565b60405180910390fd5b600073ffffffffffffffffffffffffffffffffffffffff168273ffffffffffffffffffffffffffffffffffffffff161415610c03576040517f08c379a0000000000000000000000000000000000000000000000000000000008152600401610bfa90611547565b60405180910390fd5b80600160008573ffffffffffffffffffffffffffffffffffffffff1673ffffffffffffffffffffffffffffffffffffffff16815260200190815260200160002060008473ffffffffffffffffffffffffffffffffffffffff1673ffffffffffffffffffffffffffffffffffffffff168152602001908152602001600020819055508173ffffffffffffffffffffffffffffffffffffffff168373ffffffffffffffffffffffffffffffffffffffff167f8c5be1e5ebec7d5bd14f71427d1e84f3dd0314c0f7b2291e5b200ac8c7c3b92583604051610ce19190611627565b60405180910390a3505050565b600073ffffffffffffffffffffffffffffffffffffffff168373ffffffffffffffffffffffffffffffffffffffff161415610d5e576040517f08c379a0000000000000000000000000000000000000000000000000000000008152600401610d55906115c7565b60405180910390fd5b600073ffffffffffffffffffffffffffffffffffffffff168273ffffffffffffffffffffffffffffffffffffffff161415610dce576040517f08c379a0000000000000000000000000000000000000000000000000000000008152600401610dc590611507565b60405180910390fd5b610dd9838383610f6d565b60008060008573ffffffffffffffffffffffffffffffffffffffff1673ffffffffffffffffffffffffffffffffffffffff16815260200190815260200160002054905081811015610e5f576040517f08c379a0000000000000000000000000000000000000000000000000000000008152600401610e5690611567565b60405180910390fd5b8181610e6b91906116cf565b6000808673ffffffffffffffffffffffffffffffffffffffff1673ffffffffffffffffffffffffffffffffffffffff16815260200190815260200160002081905550816000808573ffffffffffffffffffffffffffffffffffffffff1673ffffffffffffffffffffffffffffffffffffffff1681526020019081526020016000206000828254610efb9190611679565b925050819055508273ffffffffffffffffffffffffffffffffffffffff168473ffffffffffffffffffffffffffffffffffffffff167fddf252ad1be2c89b69c2b068fc378daa952ba7f163c4a11628f55a4df523b3ef84604051610f5f9190611627565b60405180910390a350505050565b505050565b600081359050610f8181611836565b92915050565b600081359050610f968161184d565b92915050565b600081359050610fab81611864565b92915050565b600060208284031215610fc357600080fd5b6000610fd184828501610f72565b91505092915050565b60008060408385031215610fed57600080fd5b6000610ffb85828601610f72565b925050602061100c85828601610f72565b9150509250929050565b60008060006060848603121561102b57600080fd5b600061103986828701610f72565b935050602061104a86828701610f72565b925050604061105b86828701610f9c565b9150509250925092565b6000806040838503121561107857600080fd5b600061108685828601610f72565b925050602061109785828601610f9c565b9150509250929050565b6000602082840312156110b357600080fd5b60006110c184828501610f87565b91505092915050565b6110d381611703565b82525050565b6110e281611715565b82525050565b60006110f38261165d565b6110fd8185611668565b935061110d818560208601611762565b61111681611825565b840191505092915050565b600061112e602383611668565b91507f45524332303a207472616e7366657220746f20746865207a65726f206164647260008301527f65737300000000000000000000000000000000000000000000000000000000006020830152604082019050919050565b6000611194602683611668565b91507f4f776e61626c653a206e6577206f776e657220697320746865207a65726f206160008301527f64647265737300000000000000000000000000000000000000000000000000006020830152604082019050919050565b60006111fa602283611668565b91507f45524332303a20617070726f766520746f20746865207a65726f20616464726560008301527f73730000000000000000000000000000000000000000000000000000000000006020830152604082019050919050565b6000611260602683611668565b91507f45524332303a207472616e7366657220616d6f756e742065786365656473206260008301527f616c616e636500000000000000000000000000000000000000000000000000006020830152604082019050919050565b60006112c6602883611668565b91507f45524332303a207472616e7366657220616d6f756e742065786365656473206160008301527f6c6c6f77616e63650000000000000000000000000000000000000000000000006020830152604082019050919050565b600061132c602083611668565b91507f4f776e61626c653a2063616c6c6572206973206e6f7420746865206f776e65726000830152602082019050919050565b600061136c602583611668565b91507f45524332303a207472616e736665722066726f6d20746865207a65726f20616460008301527f64726573730000000000000000000000000000000000000000000000000000006020830152604082019050919050565b60006113d2602483611668565b91507f45524332303a20617070726f76652066726f6d20746865207a65726f2061646460008301527f72657373000000000000000000000000000000000000000000000000000000006020830152604082019050919050565b6000611438602583611668565b91507f45524332303a2064656372656173656420616c6c6f77616e63652062656c6f7760008301527f207a65726f0000000000000000000000000000000000000000000000000000006020830152604082019050919050565b61149a8161174b565b82525050565b6114a981611755565b82525050565b60006020820190506114c460008301846110ca565b92915050565b60006020820190506114df60008301846110d9565b92915050565b600060208201905081810360008301526114ff81846110e8565b905092915050565b6000602082019050818103600083015261152081611121565b9050919050565b6000602082019050818103600083015261154081611187565b9050919050565b60006020820190508181036000830152611560816111ed565b9050919050565b6000602082019050818103600083015261158081611253565b9050919050565b600060208201905081810360008301526115a0816112b9565b9050919050565b600060208201905081810360008301526115c08161131f565b9050919050565b600060208201905081810360008301526115e08161135f565b9050919050565b60006020820190508181036000830152611600816113c5565b9050919050565b600060208201905081810360008301526116208161142b565b9050919050565b600060208201905061163c6000830184611491565b92915050565b600060208201905061165760008301846114a0565b92915050565b600081519050919050565b600082825260208201905092915050565b60006116848261174b565b915061168f8361174b565b9250827fffffffffffffffffffffffffffffffffffffffffffffffffffffffffffffffff038211156116c4576116c36117c7565b5b828201905092915050565b60006116da8261174b565b91506116e58361174b565b9250828210156116f8576116f76117c7565b5b828203905092915050565b600061170e8261172b565b9050919050565b60008115159050919050565b6000819050919050565b600073ffffffffffffffffffffffffffffffffffffffff82169050919050565b6000819050919050565b600060ff82169050919050565b60005b83811015611780578082015181840152602081019050611765565b8381111561178f576000848401525b50505050565b600060028204905060018216806117ad57607f821691505b602082108114156117c1576117c06117f6565b5b50919050565b7f4e487b7100000000000000000000000000000000000000000000000000000000600052601160045260246000fd5b7f4e487b7100000000000000000000000000000000000000000000000000000000600052602260045260246000fd5b6000601f19601f8301169050919050565b61183f81611703565b811461184a57600080fd5b50565b61185681611721565b811461186157600080fd5b50565b61186d8161174b565b811461187857600080fd5b5056fea26469706673582212200727581e444bc2009d37f235421379f658267a22d54a5744c422baaf06b89b9464736f6c63430008000033",
  "linkReferences": {},
  "deployedLinkReferences": {}
}